:100000000C9435000C945D000C945D000C945D0024
:100010000C945D000C945D000C945D000C945D00EC
:100020000C945D000C945D000C945D000C945D00DC
:100030000C945D000C945D000C945D000C945D00CC
:100040000C947A020C945D000C9448020C942202E9
:100050000C945D000C945D000C945D000C945D00AC
:100060000C945D000C945D00570411241FBECFEF6B
:10007000D8E0DEBFCDBF11E0A0E0B1E0E4EDFDE0EF
:1000800002C005900D92AC34B107D9F721E0ACE481
:10009000B1E001C01D92A63FB207E1F710E0C5E351
:1000A000D0E004C02197FE010E94E206C433D107CC
:1000B000C9F70E94C4020C94E8060C940000AF92A9
:1000C000BF92CF92DF92EF92FF920F931F93CF9345
:1000D000DF936C017B018B01040F151FEB015E01A7
:1000E000AE18BF08C017D10759F06991D601ED913C
:1000F000FC910190F081E02DC6010995892B79F7DB
:10010000C501DF91CF911F910F91FF90EF90DF908C
:10011000CF90BF90AF900895FC01538D448D252F53
:1001200030E0842F90E0821B930B541710F0CF9691
:10013000089501970895FC01918D828D981761F0C3
:10014000A28DAE0FBF2FB11D5D968C91928D9F5FDA
:100150009F73928F90E008958FEF9FEF0895FC01B9
:10016000918D828D981731F0828DE80FF11D858D6C
:1001700090E008958FEF9FEF0895FC01918D228DFF
:10018000892F90E0805C9F4F821B91098F73992784
:10019000089589E591E00E94BD0021E0892B09F4D2
:1001A00020E0822F089580E090E0892B29F00E94C2
:1001B000C90081110C9400000895FC01A48DA80FC2
:1001C000B92FB11DA35ABF4F2C91848D90E0019699
:1001D0008F739927848FA689B7892C93A089B189B9
:1001E0008C91837080648C93938D848D981306C05A
:1001F0000288F389E02D80818F7D80830895EF92BE
:10020000FF920F931F93CF93DF93EC0181E0888FD0
:100210009B8D8C8D98131AC0E889F989808185FFA0
:1002200015C09FB7F894EE89FF896083E889F98942
:1002300080818370806480839FBF81E090E0DF9144
:10024000CF911F910F91FF90EF900895F62E0B8D97
:1002500010E00F5F1F4F0F731127E02E8C8D8E1152
:100260000CC00FB607FCFACFE889F989808185FFB9
:10027000F5CFCE010E94DD00F1CFEB8DEC0FFD2F0D
:10028000F11DE35AFF4FF0829FB7F8940B8FEA8974
:10029000FB8980818062CFCFCF93DF93EC01888D83
:1002A0008823B9F0AA89BB89E889F9898C9185FDF1
:1002B00003C0808186FD0DC00FB607FCF7CF8C917F
:1002C00085FFF2CF808185FFEDCFCE010E94DD005A
:1002D000E9CFDF91CF9108953FB7F8948091510114
:1002E00090915201A0915301B091540126B5A89B61
:1002F00005C02F3F19F00196A11DB11D3FBFBA2FB8
:10030000A92F982F8827BC01CD01620F711D811D77
:10031000911D42E0660F771F881F991F4A95D1F7FC
:1003200008958F929F92AF92BF92CF92DF92EF92F9
:10033000FF924B015C010E946C016B017C010E94E9
:100340006C016C197D098E099F09683E7340810517
:100350009105A8F321E0821A9108A108B10888EE5E
:10036000C80E83E0D81EE11CF11C81149104A10485
:10037000B10429F7FF90EF90DF90CF90BF90AF903E
:100380009F908F900895FC0101900020E9F731972C
:10039000AF01481B590BBC0189E591E00C945F004B
:1003A0008F929F92AF92BF920F931F93CF93DF9341
:1003B000CDB7DEB7A1970FB6F894DEBF0FBECDBFA5
:1003C00019A2423008F44AE08E010F5D1F4F842EBF
:1003D000912CB12CA12CA50194010E94C006E62FFE
:1003E000B901CA01EA30F4F4E05DD801EE938D0161
:1003F000232B242B252B79F790E080E0109719F020
:10040000CD010E94C301A1960FB6F894DEBF0FBEC6
:10041000CDBFDF91CF911F910F91BF90AF909F9073
:100420008F900895E95CE1CFCF93DF930E94C301E1
:10043000EC0182E191E00E94C3018C0F9D1FDF91CE
:10044000CF9108951F920F920FB60F9211242F9300
:100450003F934F935F936F937F938F939F93AF934C
:10046000BF93EF93FF9389E591E00E94DD00FF9138
:10047000EF91BF91AF919F918F917F916F915F911C
:100480004F913F912F910F900FBE0F901F90189595
:100490001F920F920FB60F9211242F938F939F9359
:1004A000EF93FF93E0916901F0916A018081E091FF
:1004B0006F01F091700182FD1BC0908180917201EB
:1004C0008F5F8F7320917301821741F0E091720169
:1004D000F0E0E75AFE4F958F80937201FF91EF9104
:1004E0009F918F912F910F900FBE0F901F90189595
:1004F0008081F4CF1F920F920FB60F9211242F9389
:100500003F938F939F93AF93BF9380914D019091B1
:100510004E01A0914F01B091500130914C0123E068
:10052000230F2D3758F50196A11DB11D20934C01C5
:1005300080934D0190934E01A0934F01B0935001D1
:100540008091510190915201A0915301B0915401B9
:100550000196A11DB11D8093510190935201A0936A
:100560005301B0935401BF91AF919F918F913F91EF
:100570002F910F900FBE0F901F90189526E8230F14
:100580000296A11DB11DD2CF789484B5826084BD3E
:1005900084B5816084BD85B5826085BD85B5816087
:1005A00085BD80916E00816080936E001092810005
:1005B00080918100826080938100809181008160C0
:1005C0008093810080918000816080938000809181
:1005D000B10084608093B1008091B000816080930D
:1005E000B00080917A00846080937A0080917A00D4
:1005F000826080937A0080917A00816080937A0093
:1006000080917A00806880937A001092C100E09116
:100610006901F0916A0182E08083E0916501F091C7
:1006200066011082E0916701F09168018FEC808390
:1006300010927101E0916D01F0916E0186E080836E
:10064000E0916B01F0916C01808180618083E09189
:100650006B01F0916C01808188608083E0916B0177
:10066000F0916C01808180688083E0916B01F09152
:100670006C0180818F7D808380E4382EC0E0D0E0E3
:1006800068EE73E080E090E00E94910104E610E0E3
:10069000C12CD12C760130927C0080917A0080644C
:1006A00080937A0080917A0086FDFCCF809178005B
:1006B00060917900762F682F072E000C880B990B1C
:1006C0000E9499059B01AC01C701B6010E948504F7
:1006D0006B017C0161E070E080E090E00E9491019C
:1006E00001501109C1F620E030E048EC52E4C701A6
:1006F000B6010E94F6046B017C012B013C01C09203
:100700005501D0925601E0925701F0925801AC0188
:100710009B010E94BB06882331F185E191E00E9494
:10072000C301C0905501D0905601E0905701F09060
:10073000580120E030E040E454E4C701B6010E94D3
:10074000490618160CF0A3C081E291E00E94140241
:10075000209709F495CF0E94C900882309F490CF0F
:100760000E9400008DCF46015701E894B7F82FEFA3
:100770003FEF4FE75FE7C501B4010E94BB0681115F
:100780000DC02FEF3FEF4FE75FE7C501B4010E94B7
:10079000F10418161CF489E191E0C1CF2FEF3FEF6F
:1007A0004FE75FE4C701B6010E94490618161CF422
:1007B0008DE191E0B4CF2FEF3FEF4FE75FECC70142
:1007C000B6010E94F10487FDF3CF20E030E0A901DB
:1007D000C701B6010E94F10487FF0BC06DE289E5F5
:1007E00091E00E94FF002601370177FA709477F8B4
:1007F00070942AE037ED43EA5BE3C301B2010E9443
:1008000085042B013C010E9468056B017C010E945C
:1008100097059B01AC01C301B2010E9484042B0126
:100820003C014AE0C701B6010E94D0016EE289E5B1
:1008300091E00E94FF0020E030E040E251E4C3017B
:10084000B2010E944E062B013C010E9468056B011B
:10085000F12CE12C4AE0C701B6010E94D001C7018A
:10086000B6010E9497059B01AC01C301B2010E9431
:10087000840420E030E040E251E40E944E060E94F1
:10088000680590E080E04AE00E94D0014ACF20E075
:1008900030E040E853E4C701B6010E94F10487FD4F
:1008A00003C081E391E052CF8FE391E04FCFE9E5C0
:1008B000F1E01382128288EE93E0A0E0B0E084833E
:1008C0009583A683B78384E091E09183808385EC50
:1008D00090E09587848784EC90E09787868780EC0A
:1008E00090E0918B808B81EC90E0938B828B82ECFB
:1008F00090E0958B848B86EC90E0978B868B118EA5
:10090000128E138E148E08955058BB27AA270E946A
:100910009C040C940F060E94010638F00E94080601
:1009200020F039F49F3F19F426F40C94FE050EF4E0
:10093000E095E7FB0C94F805E92F0E94200658F398
:10094000BA17620773078407950720F079F4A6F5B4
:100950000C9442060EF4E0950B2EBA2FA02D0B013D
:10096000B90190010C01CA01A0011124FF27591BF4
:1009700099F0593F50F4503E68F11A16F040A22FFA
:10098000232F342F4427585FF3CF4695379527956B
:10099000A795F0405395C9F77EF41F16BA0B620B6A
:1009A000730B840BBAF09150A1F0FF0FBB1F661FB1
:1009B000771F881FC2F70EC0BA0F621F731F841FF4
:1009C00048F4879577956795B795F7959E3F08F01A
:1009D000B0CF9395880F08F09927EE0F97958795DC
:1009E00008950E94D40508F481E008950E940A0544
:1009F0000C940F060E94080658F00E94010640F071
:100A000029F45F3F29F00C94F80551110C9443062A
:100A10000C94FE050E94200668F39923B1F3552338
:100A200091F3951B550BBB27AA2762177307840701
:100A300038F09F5F5F4F220F331F441FAA1FA9F397
:100A400035D00E2E3AF0E0E832D091505040E69585
:100A5000001CCAF72BD0FE2F29D0660F771F881FE6
:100A6000BB1F261737074807AB07B0E809F0BB0BD9
:100A7000802DBF01FF2793585F4F3AF09E3F5105ED
:100A800078F00C94F8050C9443065F3FE4F3983E2D
:100A9000D4F3869577956795B795F7959F5FC9F7D6
:100AA000880F911D9695879597F90895E1E0660F57
:100AB000771F881FBB1F621773078407BA0720F0D0
:100AC000621B730B840BBA0BEE1F88F7E095089539
:100AD0000E94280688F09F5798F0B92F9927B751A0
:100AE000B0F0E1F0660F771F881F991F1AF0BA95D2
:100AF000C9F714C0B13091F00E944206B1E00895E8
:100B00000C944206672F782F8827B85F39F0B93FD9
:100B1000CCF3869577956795B395D9F73EF4909584
:100B20008095709561957F4F8F4F9F4F0895E89402
:100B300009C097FB3EF490958095709561957F4F25
:100B40008F4F9F4F9923A9F0F92F96E9BB279395D3
:100B5000F695879577956795B795F111F8CFFAF4E3
:100B6000BB0F11F460FF1BC06F5F7F4F8F4F9F4F14
:100B700016C0882311F096E911C0772321F09EE872
:100B8000872F762F05C0662371F096E8862F70E0D8
:100B900060E02AF09A95660F771F881FDAF7880FB2
:100BA0009695879597F90895990F0008550FAA0B08
:100BB000E0E8FEEF16161706E807F907C0F0121670
:100BC0001306E407F50798F0621B730B840B950B73
:100BD00039F40A2661F0232B242B252B21F40895C8
:100BE0000A2609F4A140A6958FEF811D811D089565
:100BF00097F99F6780E870E060E008959FEF80ECD0
:100C0000089500240A941616170618060906089572
:100C100000240A9412161306140605060895092ED8
:100C20000394000C11F4882352F0BB0F40F4BF2B47
:100C300011F460FF04C06F5F7F4F8F4F9F4F089587
:100C400057FD9058440F551F59F05F3F71F047957D
:100C5000880F97FB991F61F09F3F79F08795089562
:100C6000121613061406551FF2CF4695F1DF08C081
:100C7000161617061806991FF1CF8695710561059E
:100C800008940895E894BB2766277727CB0197F946
:100C900008950E94D40508F48FEF08950E9461061C
:100CA0000C940F060E94010638F00E94080620F0FE
:100CB000952311F00C94F8050C94FE0511240C9466
:100CC00043060E94200670F3959FC1F3950F50E0F4
:100CD000551F629FF001729FBB27F00DB11D639FEE
:100CE000AA27F00DB11DAA1F649F6627B00DA11D94
:100CF000661F829F2227B00DA11D621F739FB00D3A
:100D0000A11D621F839FA00D611D221F749F3327A9
:100D1000A00D611D231F849F600D211D822F762F42
:100D20006A2F11249F5750409AF0F1F088234AF01F
:100D3000EE0FFF1FBB1F661F771F881F915050408B
:100D4000A9F79E3F510580F00C94F8050C944306DA
:100D50005F3FE4F3983ED4F3869577956795B79512
:100D6000F795E7959F5FC1F7FE2B880F911D96952C
:100D7000879597F908950E94D405880B990B0895DB
:100D8000A1E21A2EAA1BBB1BFD010DC0AA1FBB1F8F
:100D9000EE1FFF1FA217B307E407F50720F0A21B01
:100DA000B30BE40BF50B661F771F881F991F1A946E
:100DB00069F760957095809590959B01AC01BD0198
:100DC000CF010895EE0FFF1F0590F491E02D0994D7
:040DD000F894FFCFC5
:100DD40000000000FF005F008C004C01BD009B0080
:100DE400AF000D0A006E616E00696E66006F766674
:100DF40000202D20736F6C6F206D6F6C6861646FC1
:100E040000202D20696E646566696E69646F002038
:0C0E14002D20736F6C6F207365636F00FE
:00000001FF
