:020000040000FA
:100000000C9465000C948D000C948D000C948D0064
:100010000C948D000C948D000C948D000C948D002C
:100020000C948D000C948D000C948D000C948D001C
:100030000C948D000C948D000C948D000C948D000C
:100040000C9411110C948D000C94DF100C94B910C9
:100050000C948D000C948D000C948D000C948D00EC
:100060000C948D000C948D007C3C3E5E2B3D3F2F0C
:100070005B5D3B2C2A225C000000000800020100AE
:100080000003040700000000000000000000000062
:10009000250028002B0000000000240027002A0073
:1000A000040404040404040402020202020203031E
:1000B0000303030301020408102040800102040826
:1000C00010200102040810205B1111241FBECFEF85
:1000D000D8E0DEBFCDBF12E0A0E0B1E0E8EEFBE289
:1000E00002C005900D92AA30B107D9F725E0AAE029
:1000F000B2E001C01D92A532B207E1F710E0C5E6FB
:10010000D0E004C02197FE010E949C14C436D107A0
:10011000C9F70E94B2110C94F2150C940000CF9311
:10012000DF93FC01828193819093090580930805F8
:1001300084819581A681B78180930A0590930B05F0
:10014000A0930C05B0930D0580859185A285B3859C
:1001500080930E0590930F05A0931005B0931105A1
:10016000DF011C96CF014996C2E1D5E02D9129937C
:10017000A817B907D9F7818D928D909320058093A8
:100180001F0586E095E0DF91CF91089590E0FC0196
:10019000EC54FF4F249180569F4FFC01849188239B
:1001A00099F090E0880F991FFC01EA56FF4FA59146
:1001B000B491FC01E457FF4F859194918FB7F89467
:1001C000EC91E22BEC938FBF0895AF92BF92CF9248
:1001D000DF92EF92FF920F931F93CF93DF936C0107
:1001E0007B018B01040F151FEB015E01AE18BF08E8
:1001F000C017D10759F06991D601ED91FC9101909A
:10020000F081E02DC6010995892B79F7C501DF91B1
:10021000CF911F910F91FF90EF90DF90CF90BF9003
:10022000AF900895FC01538D448D252F30E0842F2D
:1002300090E0821B930B541710F0CF96089501970E
:100240000895FC01918D828D981761F0A28DAE0FFB
:10025000BF2FB11D5D968C91928D9F5F9F73928F82
:1002600090E008958FEF9FEF0895FC01918D828DAE
:10027000981731F0828DE80FF11D858D90E008957B
:100280008FEF9FEF0895FC01918D228D892F90E0D3
:10029000805C9F4F821B91098F73992708958EE18F
:1002A00094E00E94430121E0892B09F420E0822F91
:1002B000089580E090E0892B29F00E944F01811180
:1002C0000C9400000895FC01A48DA80FB92FB11D56
:1002D000A35ABF4F2C91848D90E001968F7399277C
:1002E000848FA689B7892C93A089B1898C9183705A
:1002F00080648C93938D848D981306C00288F38953
:10030000E02D80818F7D80830895EF92FF920F937F
:100310001F93CF93DF93EC0181E0888F9B8D8C8DB1
:1003200098131AC0E889F989808185FF15C09FB7A5
:10033000F894EE89FF896083E889F9898081837068
:10034000806480839FBF81E090E0DF91CF911F9117
:100350000F91FF90EF900895F62E0B8D10E00F5F38
:100360001F4F0F731127E02E8C8D8E110CC00FB60E
:1003700007FCFACFE889F989808185FFF5CFCE01A6
:100380000E946301F1CFEB8DEC0FFD2FF11DE35ABD
:10039000FF4FF0829FB7F8940B8FEA89FB89808129
:1003A0008062CFCFCF93DF93EC01888D8823B9F0A3
:1003B000AA89BB89E889F9898C9185FD03C0808170
:1003C00086FD0DC00FB607FCF7CF8C9185FFF2CFED
:1003D000808185FFEDCFCE010E946301E9CFDF91DF
:1003E000CF91089590E0FC01E858FF4F2491FC0163
:1003F000EC54FF4F3491FC01E056FF4FE491EE23A3
:10040000C9F0222339F0233001F1A8F4213019F189
:10041000223029F1F0E0EE0FFF1FE457FF4FA591C6
:10042000B4918FB7F894EC91611126C030953E23BA
:100430003C938FBF08952730A9F02830C9F02430AD
:1004400049F7809180008F7D03C0809180008F7775
:1004500080938000DFCF84B58F7784BDDBCF84B5F8
:100460008F7DFBCF8091B0008F778093B000D2CF8B
:100470008091B0008F7DF9CF3E2BDACF3FB7F89453
:100480008091160290911702A0911802B091190262
:1004900026B5A89B05C02F3F19F00196A11DB11DDF
:1004A0003FBFBA2FA92F982F8827BC01CD01620F1B
:1004B000711D811D911D42E0660F771F881F991FD6
:1004C0004A95D1F708952FB7F89460911202709170
:1004D000130280911402909115022FBF08958FB7D7
:1004E000F89480910B028FBF089561E0FC01848134
:1004F0000E94F20180910A02811110920A0208956D
:100500008EBD00000DB407FEFDCF8EB508958FEFB0
:100510000C9480020F931F93CF93DF93EC010E9402
:1005200063028B010E9487028F3F69F00E94630281
:10053000601B710B6C177D07A8F380E0DF91CF91F2
:100540001F910F91089581E0F9CF8CBD9DBD089555
:10055000CF93DF93EC0180910A02811109C081E001
:1005600080930A028091BB049091BC040E94A50272
:1005700060E08C81DF91CF910C94F2018F929F9279
:10058000AF92BF92FF920F931F93CF93DF93EC0133
:10059000F62E49015A018E81882389F08F81988532
:1005A0009C012F5F3F4F38872F838230924018F491
:1005B0000E948702F3CFCE010E9475021E82CE01F7
:1005C0000E94A8028CE291E00E948A028F2D806432
:1005D0000E94800208E110E0D501C401002E04C091
:1005E000B695A795979587950A94D2F70E948002B1
:1005F00008501109083F8FEF180771F785E9FF20B0
:1006000021F028E087E8F2128FEF0E94800210E0CC
:100610000E9487028A8787FF04C01F3F11F01F5F77
:10062000F7CFDF91CF911F910F91FF90BF90AF90C7
:100630009F908F900895AF92BF92CF92DF92EF92EA
:10064000FF920F931F93CF93DF93EC016901C801D1
:10065000820F931F8130924050F58E81882379F06C
:1006600088819981AA81BB8184179507A607B7075E
:1006700031F48F819885C816D90608F042C04883A6
:1006800059836A837B838B85833039F089E0440FFB
:10069000551F661F771F8A95D1F79A01AB0161E15B
:1006A000CE010E94BE02882389F083E08D83CE01B3
:1006B0000E94750280E0DF91CF911F910F91FF9012
:1006C000EF90DF90CF90BF90AF9008950E946302AB
:1006D0005B010E9487028A878F3F69F40E94630250
:1006E0006A197B096D327140A0F38FE08D83CE01D2
:1006F0000E947502DCCF8E3F89F418861F8281E04C
:100700008E838F8198858C159D0550F40E948702F9
:100710008F819885019698878F83F3CF8DE0E6CF00
:100720006701E00EF11E0E948702F60181936F01BE
:10073000EE15FF05C1F78F819885080F191F1887DF
:100740000F838985882319F001151240A0F08E814E
:10075000882389F08F8198859C012F5F3F4F3887D0
:100760002F838230924018F40E948702F3CFCE018B
:100770000E9475021E8281E09ECFCF92DF92EF929F
:10078000FF920F93CF93DF93EC01690182E1411552
:1007900051056105710599F08B85833039F089E049
:1007A000440F551F661F771F8A95D1F79A01AB0139
:1007B00068E1CE010E94BE02882319F084E08D8397
:1007C0002DC08EEF0E94800276018EEFD81AF701BD
:1007D00081917F010E948002EC14FD04C1F78FEF2C
:1007E0000E9480028FEF0E9480020E9487028A8707
:1007F0008F71853071F4011116C0CE010E9475020F
:1008000081E0DF91CF910F91FF90EF90DF90CF903B
:10081000089581E18D83CE010E947502CE010E9470
:10082000750280E0EECF88E592E00E948A02811195
:1008300002C085E1C4CF20E030E0A9016DE0CE0127
:100840000E94BE02882311F084E1B9CF0E94870282
:100850008111FACFD2CF0F9340910D0250910E0229
:1008600060910F02709110024115510561057105EB
:1008700099F0082F2CE132E080911C0490911D0426
:100880000E94BD03882349F010920D0210920E02BF
:1008900010920F021092100281E00F9108950F93B1
:1008A000CF93C82F80910C02811105C0C1E08C2F1D
:1008B000CF910F91089540910001509101016091F5
:1008C0000201709103010C2F2CE132E080911C0495
:1008D00090911D040E94BD03811102C0C0E0E7CFCA
:1008E000CC2321F381E00E942B048823B9F31092DA
:1008F0000C02DDCF8F929F92AF92BF92EF92FF9248
:100900000F931F93CF934B015C01C42F8091000183
:1009100090910101A0910201B09103018815990500
:10092000AA05BB0551F181E00E944F0481110BC063
:1009300080E0CF911F910F91FF90EF90BF90AF900B
:100940009F908F9008958CE1E82E82E0F82E00E0D1
:1009500012E030E020E0B501A40180911C049091E8
:100960001D040E941B03882319F3809200019092BA
:100970000101A0920201B092030140910C024C2BA4
:1009800040930C0281E0D5CF8F929F92AF92BF929D
:10099000CF92DF92EF92FF92CF932DEB34E0309322
:1009A0001D0420931C04882309F46DC040E060E01E
:1009B00070E0CB010E947A0481110BC080E0CF91DE
:1009C000FF90EF90DF90CF90BF90AF909F908F906F
:1009D00008958091DA038F7789F78091E6039091EB
:1009E000E703A091E803B091E90384369105A105DE
:1009F000B10520F3C090E203D090E303E090E4035C
:100A0000F090E503C114D104E104F104B9F240E02F
:100A1000C701B6010E947A04882381F280912702DF
:100A2000909128028115924049F6A0912C02AA23A8
:100A300029F260912A0270912B026115710509F467
:100A4000BDCF20912902222309F4B8CFA093DB0463
:100A50002093CD0490E080E030E0E1E0F0E0C82FAA
:100A6000AF01082E02C0440F551F0A94E2F7241765
:100A7000350769F041E0480F01968930910579F713
:100A80004093D6049BCFC12CD12C7601C0CF80934C
:100A9000D604209132023091330250E040E021151B
:100AA000310541F4209140023091410240914202CF
:100AB000509143022093CE043093CF044093D0044E
:100AC0005093D10446015701860E971EA11CB11CFC
:100AD0008092DC049092DD04A092DE04B092DF04E8
:100AE000E0912D02F0912E02F093E204E093E104F4
:100AF000B0E00E949114DC01CB01880D991DAA1D64
:100B0000BB1D8093E3049093E404A093E504B093A9
:100B1000E60425E0EE0FFF1F2A95E1F7E150FE4FB6
:100B2000EF2FFF27E6958E0F9F1FA11DB11D80930C
:100B3000D7049093D804A093D904B093DA0480909A
:100B40002F0290903002B12CA12C8114910441F419
:100B500080903C0290903D02A0903E02B0903F02F7
:100B6000C81AD90AEA0AFB0AC80CD91CEA1CFB1CE1
:100B700004C0F694E794D794C794CA95D2F7C0926C
:100B8000D204D092D304E092D404F092D50485EF3D
:100B9000C8168FE0D806E104F10428F48CE08093B5
:100BA000E00481E00CCF80E125EFC2162FEFD206E2
:100BB000E104F104A0F38091480290914902A091D0
:100BC0004A02B0914B028093E3049093E404A09313
:100BD000E504B093E60480E2E2CF4F925F926F9219
:100BE0007F928F929F92AF92BF92CF92DF92EF92BD
:100BF000FF920F931F93CF93DF93EC014230510587
:100C00006105710590F480E0DF91CF911F910F9104
:100C1000FF90EF90DF90CF90BF90AF909F908F901C
:100C20007F906F905F904F90089589859A85AB85EE
:100C3000BC850196A11DB11D84179507A607B707AE
:100C400010F3CB88DC88ED88FE888F89803109F02D
:100C500042C0BB27A72F962F852F480159012A0193
:100C60003B01C80ED91EEA1EFB1E80910001909127
:100C70000101A0910201B0910301C816D906EA064C
:100C8000FB0699F58F898031C1F5B301A201552783
:100C900066277727440F551F445E5D4FFA01918206
:100CA000808280910C02816080930C028A8982305C
:100CB00080F08D819E81AF81B8858C0D9D1DAE1D0C
:100CC000BF1D80930D0290930E02A0930F02B0936C
:100CD000100281E099CFDB01CA01E7E0B695A79544
:100CE00097958795EA95D1F7B8CF40E0C701B6014F
:100CF0000E947A048111C6CF86CFB301A2014F773B
:100D0000552766277727440F551F440F551F445E0C
:100D10005D4FFA0180829182A282B382C2CF8F920C
:100D20009F92AF92BF92CF92DF92EF92FF920F937A
:100D30001F93CF93DF93FC0181859285A385B485B2
:100D40000196A11DB11D84179507A607B70770F47A
:100D500080E0DF91CF911F910F91FF90EF90DF9096
:100D6000CF90BF90AF909F908F9008958388948884
:100D7000A588B6888789803189F5BB27A72F962F4C
:100D8000852FE9016A017B018F01BC01CD01680D4E
:100D9000791D8A1D9B1D8090000190900101A090FB
:100DA0000201B090030186169706A806B90601F560
:100DB000F8018789803111F5DD24EE24FF24F60146
:100DC000EE0FFF1FE45EFD4F80819181B0E0A0E057
:100DD00088839983AA83BB8381E0BBCFDB01CA01EF
:100DE000C7E0B695A79597958795CA95D1F7C9CFCE
:100DF00040E00E947A048111DBCFAACFE894C7F8C3
:100E0000DD24EE24FF24F601EE0FFF1FEE0FFF1F7F
:100E1000E45EFD4F80819181A281B381BF70D8CF04
:100E20004F925F926F927F92AF92BF92CF92DF927A
:100E3000EF92FF920F931F93CF93DF9300D000D0D8
:100E4000CDB7DEB78C0149835A836B837C8359010C
:100E5000C12CD12C7601412C82E0582E612C712CB2
:100E600049815A816B817C819E012F5F3F4FC80170
:100E70000E948F06882339F1F8018585A30192012C
:100E800004C0220F331F441F551F8A95D2F7DA0181
:100E9000C901C80ED91EEA1EFB1E49815A816B8109
:100EA0007C818789803111F188EF9FEFAFEFBFE040
:100EB000481759076A077B0798F2F501C082D1826B
:100EC000E282F38281E00F900F900F900F90DF91FC
:100ED000CF911F910F91FF90EF90DF90CF90BF9037
:100EE000AF907F906F905F904F90089588EF9FEF45
:100EF000A0E0B0E0DDCFCF93DF93FC01258122237A
:100F000021F080E0DF91CF910895EC018091E00421
:100F1000803159F582E08583178A108E118E128EEA
:100F20008091E1049091E204B0E0A0E025E0880F18
:100F3000991FAA1FBB1F2A95D1F7838B948BA58B72
:100F4000B68B89EC94E09C8F8B8F81E08C831E8222
:100F50001F82188619861A861B861C861D861E8689
:100F60001F86188A198A1A8ACDCF803251F683E0FB
:100F700085834091E3045091E4046091E50470910D
:100F8000E604478B508F618F728F9F012D5E3F4F1C
:100F900089EC94E00E9410078111D3CFB2CF8F92D9
:100FA0009F92AF92BF92CF92DF92EF92FF920F93F8
:100FB0001F93CF93DF93EC018D8181110EC080E0F0
:100FC000DF91CF911F910F91FF90EF90DF90CF9025
:100FD000BF90AF909F908F9008950B891C892D89A9
:100FE0003E89041715072607370748F34A015B01B6
:100FF000823031F48A869B86AC86BD8681E0E0CF64
:1010000081149104A104B10449F41E821F82188640
:1010100019861A861B861C861D86F0CF0A851B85BD
:101020002C853D85EB8DFC8D858590E00996B90179
:10103000A8014150510961097109082E04C0769533
:101040006795579547950A94D2F775016401E1E0D9
:10105000CE1AD108E108F10804C0F694E794D794B9
:10106000C7948A95D2F7C416D506E606F70620F08F
:10107000012B022B032B11F58F89988DA98DBA8D29
:101080008E839F83A887B9878E010A5F1F4FC11483
:10109000D104E104F10409F4ADCF4E815F8168858C
:1010A000798598018B8D9C8D0E948F0691E0C91ADD
:1010B000D108E108F1088111EACF81CFC41AD50A1D
:1010C000E60AF70AE1CF3F924F925F926F927F92CA
:1010D0008F929F92AF92BF92CF92DF92EF92FF9248
:1010E0000F931F93CF93DF93CDB7DEB72C970FB637
:1010F000F894DEBF0FBECDBF5C01DC015B968D9026
:101100009C905C9716964D905D906D907C90199791
:10111000411451046104710409F468C0BFEF4B1A13
:101120005B0A6B0A7B0A312CF40181859285A385C9
:10113000B4859C01AD012F5F3F4F4F4F5F4F298713
:101140003A874B875C87730162011D821E821F8272
:101150001886F40181859285A385B4852D813E8111
:101160004F815885281739074A075B0708F056C092
:1011700089859A85AB85BC858C159D05AE05BF0517
:1011800050F482E0C82ED12CE12CF12C92E0492EB3
:10119000512C612C712C9E012F5F3F4FB701A6018E
:1011A000C4010E948F068823C9F189819A81AB818D
:1011B000BC81892B8A2B8B2B09F1260137019FEFEC
:1011C000491A590A690A790A2D813E814F81588549
:1011D0002F5F3F4F4F4F5F4F2D833E834F83588785
:1011E0003FEFC31AD30AE30AF30AB3CFF4014080F6
:1011F0005180628073803324339496CFC414D50415
:10120000E604F70409F70FEF1FEF2FEF3FE0B701F8
:10121000A601C4010E94ED05811119C080E02C9641
:101220000FB6F894DEBF0FBECDBFDF91CF911F91F7
:101230000F91FF90EF90DF90CF90BF90AF909F9075
:101240008F907F906F905F904F903F900895D50161
:1012500016964D915D916D917C91199741155105AF
:101260006105710539F097018601C4010E94ED0501
:101270008823A1F2D5011696CD92DD92ED92FC92D3
:101280001997332051F0D701C6010196A11DB11D58
:10129000F40180839183A283B383F5018789908DC4
:1012A000A18DB28D892B8A2B8B2B39F48481C78A2F
:1012B000D08EE18EF28E80688483F5018481806215
:1012C000848381E0ACCF1F93CF93DF93FC01258112
:1012D0002223D1F1162FEC01848187FF2AC0668575
:1012E00077858089918941E00E947A04882361F1A1
:1012F000EA8980E2E89FF0011124E45EFD4F309717
:1013000019F18D81823040F48B899C89AD89BE8929
:10131000848F958FA68FB78F8F89988D938F828FAB
:101320008F89988DA98DBA8DB58BA48B8C818F7781
:101330008C83111103C08C818F7E8C83812FDF9170
:10134000CF911F910C944F0480E0DF91CF911F91BA
:101350000895FF920F931F93CF93DF93EC018D813C
:10136000813041F090E080E0DF91CF911F910F91AB
:10137000FF9008958C8181FFF5CF82FD1BC0009105
:101380001C0410911D04C8010E94A8020E9487023B
:10139000F82EC8010E9475028FEFF812E3CF8C81FE
:1013A00085FF1BC060E0CE010E9463098C818F7DA8
:1013B0008C83D8CF4B895C896D897E898A859B8592
:1013C000AC85BD8584179507A607B707C1F2CE0186
:1013D0000E94CF078111D3CFC5CF40910D0250910C
:1013E0000E0260910F0270911002452B462B472B85
:1013F00021F080E00E942B04B5CF80618C832A8588
:101400003B85317080E092E0821B930BADCFCF9390
:10141000DF93EC0161E00E946309882311F01D82D3
:1014200081E0DF91CF9108952F923F924F925F928A
:101430006F927F928F929F92AF92BF92CF92DF92E4
:10144000EF92FF920F931F93CF93DF9300D000D0C2
:101450001F92CDB7DEB77C015B01342E5D83DC01CA
:1014600015968C911597813009F0CEC014962C906A
:1014700021FECAC022FCB4C0C32CDD8022947FE0D0
:1014800027222094B22DB1702B2ED7011A964D91A0
:101490005D916D917C911D97C114D10409F428C10F
:1014A0005B968D919C915C97FC0174807A948A0183
:1014B0009B0169E036952795179507956A95D1F7B1
:1014C00070228A011170711020C001151105E9F414
:1014D00016964D915D916D917C911997411551052D
:1014E0006105710509F099C057968D919D910D90F8
:1014F000BC91A02D0097A105B10509F0B0C0C701AE
:101500000E946308882309F47FC080E092E0801B7A
:10151000910B46018C159D0508F44C01D7015B9693
:101520004D915C915C9716968D919D910D90BC911B
:10153000A02D0297A109B109FA01258504C0880FE1
:10154000991FAA1FBB1F2A95D2F746855785608928
:101550007189840F951FA61FB71F9C01AD01270D30
:10156000311D411D511D29013A01811432E09306BC
:1015700009F07BC08091000190910101A0910201CE
:10158000B091030184159505A605B70559F48FEFB1
:101590009FEFDC018093000190930101A093020171
:1015A000B0930301022D9501B301A20180911C04A7
:1015B00090911D040E94BD03882331F19EEFB91A5A
:1015C000C818D908F70182859385A485B585880D4B
:1015D000991DA11DB11D82879387A487B58755CF1B
:1015E000F701438954896589768982859385A48525
:1015F000B585481759076A077B0709F43DCFC7012E
:101600000E94CF07811138CF81E090E0D701139677
:101610009C938E93129780E007C09E012F5F3F4FEF
:101620000E948F06811102C090E079C089819A8161
:10163000AB81BC81F701238D348DF901278948EFF7
:101640005FEF60E070E0203121F048EF5FEF6FEF77
:101650007FE084179507A607B70708F050CFF7017A
:1016600086839783A087B18750CF0115110599F51F
:10167000D7011A964D915D916D917C911D9753966E
:101680008D919D910D90BC91A02D481759076A0727
:101690007B0708F181E00E944F04882309F4B4CF4E
:1016A0004092000150920101609202017092030188
:1016B00080910C02816080930C02C801845E9D4F72
:1016C000D5019C01280D391DFC012E173F0759F04B
:1016D0004D914193FACF41E0C301B2010E947A04D7
:1016E0008111EBCF91CF281B390BA20EB31E68CF0F
:1016F000F70183899489A589B68984179507A60778
:10170000B70738F48481438B548B658B768B806864
:101710008483F701848183FD1AC0832D9D810F90FE
:101720000F900F900F900F90DF91CF911F910F911D
:10173000FF90EF90DF90CF90BF90AF909F908F90F1
:101740007F906F905F904F903F902F90089561E051
:10175000C7010E946309882309F456CFDECFCF93D7
:10176000DF931F92CDB7DEB7698341E050E0BE0141
:101770006F5F7F4F0E94140A0F90DF91CF91089501
:10178000FC01DB0112968D919C91139793838283C8
:1017900080E291E09183808314968C9114978483E6
:1017A00015968C911597858316964D915D916D9147
:1017B0007C91199746835783608771871A964D915C
:1017C0005D916D917C911D974287538764877587E2
:1017D0001E964D915D916D917C91519746875787EB
:1017E000608B718B52968C915297828B53964D9150
:1017F0005D916D917C915697438B548B658B768B65
:1018000057964D915D916D917C915A97478B508F72
:10181000618F728F5B968D919C91948F838F0895C9
:101820000895FC01818D928D009719F061E00C9470
:1018300063090895DC015996ED91FC913097B9F058
:1018400083899489A589B689428553856485758580
:10185000841B950BA60BB70B811520E89207A105F9
:10186000B10538F08FEF9FE7A0E0B0E0089590E079
:1018700080E00895DC0159968D919C91009739F094
:10188000DC01ED91FC910480F581E02D099490E05C
:1018900080E00895CF93DF93EC01E98DFA8D3097C6
:1018A00049F481E090E09B838A8390E080E0DF91BF
:1018B000CF91089513821282898D9A8D0E94140A05
:1018C000E98DFA8D22813381232B59F7F0CFCF9305
:1018D000DF931F92CDB7DEB76983DC01ED91FC91F8
:1018E0000280F381E02D41E050E0BE016F5F7F4F49
:1018F00009950F90DF91CF9108952F923F924F92CB
:101900005F926F927F928F929F92AF92BF92CF928F
:10191000DF92EF92FF920F931F93CF93DF9300D04C
:101920001F92CDB7DEB7FC018581811118C08FEF02
:101930009FEF0F900F900F90DF91CF911F910F911C
:10194000FF90EF90DF90CF90BF90AF909F908F90DF
:101950007F906F905F904F903F902F90089584817B
:1019600080FFE5CF4389548965897689828593858F
:10197000A485B585312C212C481759076A077B07A8
:1019800019F022242394312C6F012101CE010196FC
:101990003C01DF011696BB83AA834114510409F46C
:1019A000C5C0F60142855385648575854A01F1E01D
:1019B0009F22D6015B968D919C915C978A019B0139
:1019C000E9E03695279517950795EA95D1F715968D
:1019D000EC91E230E9F5FC01628D738D848D958D7B
:1019E000600F711F821F931FA12C22E0B22EA81836
:1019F000B9084A145B0408F45201F601248126FD5B
:101A000004C0A114F2E0BF0671F40091000110912E
:101A100001012091020130910301061717072807E1
:101A2000390709F05EC040E00E947A04882309F477
:101A30007ECFC401845E9D4FD3019C012A0D3B1DC6
:101A4000FC012E173F0709F46CC041914D93F9CF6B
:101A5000DC011496BC90BA94B0228114910479F4FC
:101A6000B1100DC0452B462B472B69F5F601878930
:101A7000908DA18DB28D86839783A087B187D60183
:101A80005B96ED91FC915C9716966D917D918D9191
:101A90009C9119976250710981099109258504C0AB
:101AA000660F771F881F991F2A95D2F7068517851D
:101AB00020893189600F711F821F931F6B0D711D6B
:101AC000811D911D91CFD60116964D915D916D911D
:101AD0007C9119972A813B810E948F068111CFCF7B
:101AE00026CF730185019401AB01BC0180911C04D8
:101AF00090911D040E941B03882309F418CF6A0CDF
:101B00007B1CF60182859385A485B5858A0D9B1D76
:101B1000A11DB11D82879387A487B5874A185B08EA
:101B20003CCF281B390B620E731EEBCF2A9423285F
:101B300009F0FDCE898190E0FCCEFC01818D928D73
:101B4000009711F00C947D0C8FEF9FEF08950F9389
:101B50001F93CF93DF93EC01898D9A8D10E000E005
:101B6000009799F00E947D0C8C010F3F100769F0DF
:101B7000898D9A8DFC014285538564857585415018
:101B80005109610971090E94CF07C801DF91CF9106
:101B90001F910F910895FB0101900020E9F7319703
:101BA000AF01461B570BDC01ED91FC910280F381E4
:101BB000E02D09940F931F93CF93DF93EC010E94C4
:101BC000CB0D8C016AE371E0CE010E94CB0D800F3A
:101BD000911FDF91CF911F910F910895CF92DF92C6
:101BE000EF92FF921F93CF93DF93EC0180E2689F07
:101BF000F0011124E45EFD4F9385917161F0842F13
:101C0000827449F080E0DF91CF911F91FF90EF90B7
:101C1000DF90CF900895142F6A8B809100019091EE
:101C20000101A0910201B09103018E879F87A88BCB
:101C3000B98BC488D588F12CE12C7601DD24CC2425
:101C4000CF8AD88EE98EFA8E828D938DB0E0A0E097
:101C5000AC01BD014C295D296E297F294F8B588F1E
:101C6000698F7A8F83858871B1F4848D958DA68D67
:101C7000B78D8B8B9C8BAD8BBE8B81E08D831F7062
:101C80001C831E821F82188619861A861B861C8654
:101C90001D8681E0B8CF803109F0B4CF9E012D5E62
:101CA0003F4F8B8D9C8D0E941007882309F4AACF8B
:101CB00084E0E4CF3F924F925F926F927F928F9237
:101CC0009F92AF92BF92CF92DF92EF92FF920F93CB
:101CD0001F93CF93DF93CDB7DEB72B970FB6F89452
:101CE000DEBF0FBECDBF7C01FE013196CE010C964A
:101CF0006F0130E23193E817F907E1F7DA0130E0DC
:101D000087E09D91B92E992309F43CC09E32F1F4ED
:101D10008A30C9F480E02B960FB6F894DEBF0FBE70
:101D2000CDBFDF91CF911F910F91FF90EF90DF908A
:101D3000CF90BF90AF909F908F907F906F905F906B
:101D40004F903F90089538E08AE0DBCFE8E6F0E07E
:101D50004491442321F031969413FACFDBCF8317BB
:101D6000C8F24FED490F4E35A8F64FE9490F4A31F9
:101D700018F440EEB42EB90EF601E30FF11DB08257
:101D80003F5FBFCF8981803229F2322E8B01DB0188
:101D90005B968D919C915C97F701948F838F16963B
:101DA0001D921D921D921C921997FB01128613869B
:101DB00014861586F80182859385A485B5854389A7
:101DC00054896589768984179507A607B70708F0AF
:101DD0004DC025E0B695A795979587952A95D1F79B
:101DE000F82FFF70AF2ED80115968C91823008F431
:101DF00091CFC8010E947D0C97FD8CCFF8018285A0
:101E00009385A485B5854F96A11DB11D82879387C3
:101E1000A487B587F0E2AF9EB0011124645E7D4FC8
:101E20006115710509F476CFDB018C91882341F0AF
:101E3000853E09F062C0BB2029F0BB24B394BACF21
:101E4000B1100EC0F701A28A8091000190910101AA
:101E5000A0910201B091030186879787A08BB18B77
:101E6000DB018C918111E9CFBB24B394832D827166
:101E7000823109F04FCFBB2009F44DC0F7016685D0
:101E800077858089918941E00E947A04882309F44A
:101E900041CFD70152968C91B0E28B9FC0011124A3
:101EA000845E9D4F009709F435CFFC013A9626E1F8
:101EB000DF011D922A95E9F72BE0F601DC01019084
:101EC0000D922A95E1F721E238E2FC01318B208B5B
:101ED00040E058E057874687338B228B318F208F25
:101EE000578B468B81E00E944F04882309F412CF60
:101EF000432DD70152966C910AC04BE050E0C601C9
:101F00000E94D615892B09F055CF432D6A2DC701A4
:101F10000E94EE0D00CFF8018581823009F4FACEDF
:101F2000C8010E946308882309F4F4CED8015B96A7
:101F3000ED91FC915C9716968D909D90AD90BC9024
:101F40001997B2E08B1A9108A108B108858504C0E1
:101F5000880C991CAA1CBB1C8A95D2F7868597858C
:101F6000A089B189880E991EAA1EBB1E84812401F6
:101F70003501480E511C611C711C84149504A60483
:101F8000B70409F1E1E04E1A51086108710881E0D7
:101F90000E944F04882309F4BDCEECE1F2E01192D7
:101FA0008CE194E08E179F07D1F740920001509288
:101FB0000101609202017092030180910C02816024
:101FC00080930C02DACFD8015B96ED91FC912585C8
:101FD00080E092E0A0E0B0E004C0880F991FAA1F43
:101FE000BB1F2A95D2F7F801438954896589768900
:101FF000840F951FA61FB71F838B948BA58BB68B61
:10200000D70152961C928CE192E04FCFEF92FF9253
:102010000F931F93CF93DF93EC017B018A011B8207
:102020001A8288EE93E0A0E0B0E08C839D83AE83BB
:10203000BF838CE291E0998388838DE190E00E94D8
:10204000B1149A8F898F009779F02DE1F701DC01A7
:1020500001900D922A95E1F74CE050E0B801CE01D5
:102060000C960E94E315188EDF91CF911F910F916E
:10207000FF90EF900895CF92DF92FF920F931F93FE
:10208000CF93DF93CDB7DEB7C755D1090FB6F8941C
:10209000DEBF0FBECDBF8C01F62E1C821B8280E2FC
:1020A000C82E81E0D82EDA82C9821E82CE01019626
:1020B0000E947B07BE016F5F7F4FCE01CB960E94CF
:1020C000C00B19A218A2DF8ECE8E1BA221968FAD57
:1020D0002197811122C0F8011382128288EE93E0C9
:1020E000A0E0B0E084839583A683B7838CE291E07F
:1020F00091838083128E118E1486C801C95ADF4FD6
:102100000FB6F894DEBF0FBECDBFDF91CF911F9108
:102110000F91FF90DF90CF9008952F2D4DE351E068
:10212000BE01655C7F4FCE014E960E945A0E8823F9
:1021300091F2CE01CB960E94070A8F2D86708630D1
:1021400041F449A95AA96BA97CA9CE014E960E94D7
:10215000CF07BE01625E7F4FCE0101960E94C00B89
:102160004DE351E0BE016F5F7F4FC8010E94061032
:10217000C4CF1F920F920FB60F9211242F933F934B
:102180004F935F936F937F938F939F93AF93BF937F
:10219000EF93FF938EE194E00E946301FF91EF9132
:1021A000BF91AF919F918F917F916F915F914F916F
:1021B0003F912F910F900FBE0F901F9018951F9277
:1021C0000F920FB60F9211242F938F939F93EF933B
:1021D000FF93E0912E04F0912F048081E09134046C
:1021E000F091350482FD1BC09081809137048F5F90
:1021F0008F7320913804821741F0E0913704F0E0AA
:10220000E25EFB4F958F80933704FF91EF919F9192
:102210008F912F910F900FBE0F901F901895808176
:10222000F4CF1F920F920FB60F9211242F933F936A
:102230008F939F93AF93BF9380911202909113025B
:10224000A0911402B09115023091110223E0230FE6
:102250002D3758F50196A11DB11D209311028093D1
:10226000120290931302A0931402B093150280916E
:10227000160290911702A0911802B09119020196CE
:10228000A11DB11D8093160290931702A09318020E
:10229000B0931902BF91AF919F918F913F912F9170
:1022A0000F900FBE0F901F90189526E8230F0296EF
:1022B000A11DB11DD2CFEEE1F4E01382128288EEAF
:1022C00093E0A0E0B0E084839583A683B7832EE0FB
:1022D00031E03183208325EC30E03587248724ECFE
:1022E00030E03787268720EC30E0318B208B21ECE3
:1022F00030E0338B228B22EC30E0358B248B26ECC4
:1023000030E0378B268B118E128E138E148EEBEBF2
:10231000F4E020E520831182EDEBF4E015821682D3
:102320001186138642E050E060E070E044875587F4
:102330006687778713A215A614A620E231E033A79B
:1023400022A717A6E6E0F5E0138212828483958324
:10235000A683B7838CE291E091838083128E118EE5
:1023600014860895CF93DF93CDB7DEB7C456D10955
:102370000FB6F894DEBF0FBECDBF789484B58260EF
:1023800084BD84B5816084BD85B5826085BD85B519
:10239000816085BD80916E00816080936E00109297
:1023A0008100809181008260809381008091810012
:1023B00081608093810080918000816080938000A3
:1023C0008091B10084608093B1008091B000816001
:1023D0008093B00080917A00846080937A0080912D
:1023E0007A00826080937A0080917A008160809385
:1023F0007A0080917A00806880937A001092C10000
:10240000E0912E04F0912F0482E08083E0912A0471
:10241000F0912B041082E0912C04F0912D048FECAC
:10242000808310923604E0913204F091330486E008
:102430008083E0913004F091310480818061808359
:10244000E0913004F0913104808188608083E091D4
:102450003004F0913104808180688083E091300401
:10246000F091310480818F7D808368E471E08EE19A
:1024700094E00E94CB0D8091EC04882321F087EE3C
:1024800094E00E94070A1092C8041092C6041092A9
:10249000C3041092C20484E08093C1040E946302CA
:1024A0008B018091C1040E94C60061E08091C1044B
:1024B0000E94F201FFB6F89480911A02811124C0A3
:1024C000EAEAF0E08491EEEBF0E09491E82FF0E09E
:1024D000EE0FFF1FEA56FF4FA591B491EC91E9234F
:1024E00021F461E08AE00E94F2018AE00E94C600C5
:1024F0008CB580618CBD8CB580648CBD8DE00E94F4
:10250000C6008BE00E94C60080911A028F5F809304
:102510001A02FFBE82E58093BB041092BC04809136
:10252000BB049091BC040E94A5023AE0F32E8FEF09
:102530000E948002FA94F110FACF8DEB94E00E9491
:10254000A80220E030E0A90160E08DEB94E00E9459
:10255000BE02F82E8093C70421E08217A9F00E94E2
:102560006302601B710B613D774058F381E08093FB
:10257000C2048DEB94E00E94750265E771E08EE184
:1025800094E00E94DA0DFFCF2AEA31E040E050E00B
:1025900068E08DEB94E00E94BE0282FF2AC0F092B8
:1025A000C8048091C804C12CD12CE12C90E4F92EF0
:1025B000823019F0C12CD12C760120E030E0A90145
:1025C00067E38DEB94E00E94BE02A701960169E2E9
:1025D0008DEB94E00E94BE028093C7048823D1F063
:1025E0000E946302601B710B613D774030F388E00D
:1025F000BECF24E0F22E0E9487028093C704FA9493
:10260000F110F9CF8A3A11F082E0B1CF82E08093E5
:10261000C804C7CF8091C8048230D1F420E030E0F4
:10262000A9016AE38DEB94E00E94BE02882311F0B9
:1026300086E09DCF0E948702807C803C19F483E075
:102640008093C8040E9487020E9487020E9487022A
:102650008DEB94E00E94750280E58093BB0410929C
:10266000BC0481E00E94C404882309F4A0C087EE62
:1026700094E00E947B07882309F47FCF60E671E035
:102680008EE194E00E94DA0D1EAE1DAE80E291E074
:102690009CAF8BAF21961FAE219719A218A29F8FD6
:1026A0008E8F1BA2912C812C7E01FBE3EF0EF11C7F
:1026B00007EE14E05C01892D982DFC01E35CFE4FD0
:1026C00020812F3209F40196DC01A35CBE4FFE018C
:1026D000E85AFF4F30E020E06F014D914F3249F052
:1026E000442339F001962F5F3F4F41932C30310541
:1026F000A1F72C0D3D1DF9011082FC01E35CFE4F9A
:1027000020812F3209F40196982E892E835C9E4FEA
:10271000FC0170801C821B82BA82A9821E8221E089
:10272000A601B801CE0101960E945A0E882309F431
:10273000DEC0CE0101960E94070A71103FC024E05E
:10274000073E120719F0C8010E94070A6CE871E001
:102750008EE194E00E94CB0D61E0CE0101960E94D3
:102760003B10CE0101960E948F00E0911F05F09171
:102770002005309709F47DC08581882309F479C04C
:102780006EEF71E08EE194E00E94DA0D86E095E054
:102790000E941A0C892B09F45AC086E095E00E9429
:1027A0009D0D682F8EE194E00E948501EFCF80E0BF
:1027B0000E94C404882309F4E0CE59CFF701858133
:1027C0008111AAC021E0A601B801C7010E945A0EDA
:1027D000D82EF4E0073E1F0709F492C0C8010E94FA
:1027E000070AD11093C060EB71E08EE194E00E9483
:1027F000DA0D68ED71E08EE194E00E94DA0D67E198
:10280000CE0101960E943B10CE0101960E948F00DE
:102810006AEF71E086E095E00E94DA0D80911F0575
:1028200090912005009761F00E94070A80911F0592
:10283000909120050E944D151092200510921F05C1
:102840006FE671E08EE194E00E94DA0D85CF809111
:102850001F0590912005009761F00E94070A809162
:102860001F05909120050E944D1510922005109291
:102870001F0589E00E94C6007724739400E010E0F1
:102880000E943E024B015C0188EEC82E83E0D82EE8
:10289000E12CF12C0E943E02681979098A099B09F2
:1028A000683E734081059105A8F381E0C81AD108FC
:1028B000E108F108E8EE8E0EE3E09E1EA11CB11CBB
:1028C000C114D104E104F10429F760911B026725CA
:1028D00060931B0289E00E94F2010115110581F24B
:1028E0000E944F01882361F20E940000C9CF24E0BA
:1028F000073E120709F477CFC8010E94070A73CF79
:10290000882309F470CF8E01025E1F4F902F812F14
:102910008701E92EF82ECFCE84E0073E180761F735
:1029200062CF0E94A214A59F900DB49F900DA49F0A
:10293000800D911D11240895EE0FFF1F0590F49155
:10294000E02D0994A29FB001B39FC001A39F700D19
:10295000811D1124911DB29F700D811D1124911DA7
:1029600008950F931F93CF93DF938230910510F456
:1029700082E090E0E0912305F091240530E020E032
:10298000B0E0A0E0309799F42115310509F44AC070
:10299000281B390B24303105D8F58A819B816115BC
:1029A000710589F1FB0193838283FE0111C040818F
:1029B00051810281138148175907E0F048175907E0
:1029C00099F4109761F012960C93129713961C933A
:1029D0003296CF01DF91CF911F910F91089500930F
:1029E000230510932405F4CF2115310551F042172A
:1029F000530738F0A901DB019A01BD01DF01F8019D
:102A0000C1CFEF01F9CF9093240580932305CDCF5B
:102A1000FE01E20FF31F8193919322503109398314
:102A20002883D7CF2091210530912205232B41F413
:102A30002091060130910701309322052093210552
:102A400020910401309105012115310541F42DB784
:102A50003EB74091080150910901241B350BE091CC
:102A60002105F0912205E217F307A0F42E1B3F0B7E
:102A70002817390778F0AC014E5F5F4F24173507F0
:102A800048F04E0F5F1F509322054093210581931C
:102A900091939FCFF0E0E0E09CCFCF93DF9300973E
:102AA000E9F0FC01329713821282A0912305B091C4
:102AB0002405ED0130E020E01097A1F42081318160
:102AC000820F931F20912105309122052817390785
:102AD00009F061C0F0932205E0932105DF91CF91C9
:102AE0000895EA01CE17DF07E8F54A815B819E0170
:102AF00041155105B1F7E901FB83EA8349915991E9
:102B0000C40FD51FEC17FD0761F4808191810296F7
:102B1000840F951FE90199838883828193819B8328
:102B20008A83F0E0E0E012968D919C9113970097D4
:102B3000B9F52D913C911197CD010296820F931F0B
:102B400020912105309122052817390739F6309751
:102B500051F51092240510922305B0932205A093FD
:102B60002105BCCFD383C28340815181840F951F3F
:102B7000C817D90761F44E5F5F4F88819981480F6C
:102B8000591F518340838A819B81938382832115BE
:102B9000310509F0B0CFF0932405E09323059ECFD3
:102BA000FD01DC01C0CF13821282D7CFFB01DC0113
:102BB00004C08D910190801921F441505040C8F714
:102BC000881B990B0895FB01DC014150504048F0EF
:102BD00001900D920020C9F701C01D924150504054
:102BE000E0F70895F894FFCFFFFFFFFF00002505F1
:102BF0008000000000008501E5001201D2014301C0
:102C00002101350100000000AF0BE500A909100CFF
:102C100000000000670C4A0C3A0C110C1A0C9D0DB8
:102C2000A70D0D0A00636F6E6669672E74787400D5
:102C3000496E697469616C697A696E6720534420D2
:102C4000636172642E2E2E00696E697469616C690D
:102C50007A6174696F6E20646F6E652E00696E69AB
:102C60007469616C697A6174696F6E206661696C00
:102C7000656421004172717569766F206465206317
:102C80006F6E66696775726163616F20656E636FF1
:102C90006E747261646F2E004172717569766F2077
:102CA000646520636F6E66696775726163616F202A
:102CB0006E616F20656E636F6E747261646F2E005B
:102CC000437269616E646F206172717569766F20FD
:102CD000646520636F6E666967757261C3A7C3A37D
:102CE0006F0034303000636F6E6669672E747874DD
:022CF0003A00A8
:107E0000112484B714BE81FFF0D085E080938100F7
:107E100082E08093C00088E18093C10086E0809377
:107E2000C20080E18093C4008EE0C9D0259A86E02C
:107E300020E33CEF91E0309385002093840096BBD3
:107E4000B09BFECF1D9AA8958150A9F7CC24DD24C4
:107E500088248394B5E0AB2EA1E19A2EF3E0BF2EE7
:107E6000A2D0813461F49FD0082FAFD0023811F036
:107E7000013811F484E001C083E08DD089C08234E0
:107E800011F484E103C0853419F485E0A6D080C0E4
:107E9000853579F488D0E82EFF2485D0082F10E0AE
:107EA000102F00270E291F29000F111F8ED06801E7
:107EB0006FC0863521F484E090D080E0DECF843638
:107EC00009F040C070D06FD0082F6DD080E0C81688
:107ED00080E7D80618F4F601B7BEE895C0E0D1E017
:107EE00062D089930C17E1F7F0E0CF16F0E7DF06D8
:107EF00018F0F601B7BEE89568D007B600FCFDCFD4
:107F0000A601A0E0B1E02C9130E011968C91119780
:107F100090E0982F8827822B932B1296FA010C0160
:107F200087BEE89511244E5F5F4FF1E0A038BF0790
:107F300051F7F601A7BEE89507B600FCFDCF97BE46
:107F4000E89526C08437B1F42ED02DD0F82E2BD052
:107F50003CD0F601EF2C8F010F5F1F4F84911BD097
:107F6000EA94F801C1F70894C11CD11CFA94CF0C13
:107F7000D11C0EC0853739F428D08EE10CD085E9AC
:107F80000AD08FE07ACF813511F488E018D01DD067
:107F900080E101D065CF982F8091C00085FFFCCF94
:107FA0009093C60008958091C00087FFFCCF809118
:107FB000C00084FD01C0A8958091C6000895E0E648
:107FC000F0E098E1908380830895EDDF803219F02E
:107FD00088E0F5DFFFCF84E1DECF1F93182FE3DFCA
:107FE0001150E9F7F2DF1F91089580E0E8DFEE27F6
:047FF000FF270994CA
:027FFE00040479
:00000001FF
